{
  "_format": "hh-sol-artifact-1",
  "contractName": "L2Contract",
  "sourceName": "contracts/L2Contract.sol",
  "abi": [
    {
      "inputs": [
        {
          "internalType": "address",
          "name": "_l2Bridge",
          "type": "address"
        }
      ],
      "stateMutability": "nonpayable",
      "type": "constructor"
    },
    {
      "inputs": [
        {
          "internalType": "address",
          "name": "_to",
          "type": "address"
        },
        {
          "internalType": "bytes",
          "name": "_calldata",
          "type": "bytes"
        },
        {
          "internalType": "uint256",
          "name": "fee",
          "type": "uint256"
        }
      ],
      "name": "sendMessageToL1",
      "outputs": [],
      "stateMutability": "payable",
      "type": "function"
    }
  ],
  "bytecode": "0x608060405234801561001057600080fd5b506040516105573803806105578339818101604052810190610032919061008d565b806000806101000a81548173ffffffffffffffffffffffffffffffffffffffff021916908373ffffffffffffffffffffffffffffffffffffffff160217905550506100ff565b600081519050610087816100e8565b92915050565b60006020828403121561009f57600080fd5b60006100ad84828501610078565b91505092915050565b60006100c1826100c8565b9050919050565b600073ffffffffffffffffffffffffffffffffffffffff82169050919050565b6100f1816100b6565b81146100fc57600080fd5b50565b6104498061010e6000396000f3fe60806040526004361061001e5760003560e01c8063a51ce65514610023575b600080fd5b61003d6004803603810190610038919061017a565b61003f565b005b600064e8d4a50fff905060008060009054906101000a900473ffffffffffffffffffffffffffffffffffffffff1690508073ffffffffffffffffffffffffffffffffffffffff1663220b5b8234878686896040518663ffffffff1660e01b81526004016100af9493929190610238565b6000604051808303818588803b1580156100c857600080fd5b505af11580156100dc573d6000803e3d6000fd5b50505050505050505050565b60006100fb6100f6846102a9565b610284565b90508281526020810184848401111561011357600080fd5b61011e848285610332565b509392505050565b600081359050610135816103e5565b92915050565b600082601f83011261014c57600080fd5b813561015c8482602086016100e8565b91505092915050565b600081359050610174816103fc565b92915050565b60008060006060848603121561018f57600080fd5b600061019d86828701610126565b935050602084013567ffffffffffffffff8111156101ba57600080fd5b6101c68682870161013b565b92505060406101d786828701610165565b9150509250925092565b6101ea816102f6565b82525050565b60006101fb826102da565b61020581856102e5565b9350610215818560208601610341565b61021e816103d4565b840191505092915050565b61023281610328565b82525050565b600060808201905061024d60008301876101e1565b61025a6020830186610229565b6102676040830185610229565b818103606083015261027981846101f0565b905095945050505050565b600061028e61029f565b905061029a8282610374565b919050565b6000604051905090565b600067ffffffffffffffff8211156102c4576102c36103a5565b5b6102cd826103d4565b9050602081019050919050565b600081519050919050565b600082825260208201905092915050565b600061030182610308565b9050919050565b600073ffffffffffffffffffffffffffffffffffffffff82169050919050565b6000819050919050565b82818337600083830152505050565b60005b8381101561035f578082015181840152602081019050610344565b8381111561036e576000848401525b50505050565b61037d826103d4565b810181811067ffffffffffffffff8211171561039c5761039b6103a5565b5b80604052505050565b7f4e487b7100000000000000000000000000000000000000000000000000000000600052604160045260246000fd5b6000601f19601f8301169050919050565b6103ee816102f6565b81146103f957600080fd5b50565b61040581610328565b811461041057600080fd5b5056fea2646970667358221220bd68a60170522098d9a0b42b1869a7c0cb777ffc05c1875c95ee158d5e71e46b64736f6c63430008040033",
  "linkReferences": {},
  "deployedLinkReferences": {}
}